{
    "contractName": "MyContract",
    "abi": [
        {
            "inputs": [
                {
                    "internalType": "string",
                    "name": "_value",
                    "type": "string"
                }
            ],
            "name": "set",
            "outputs": [],
            "stateMutability": "nonpayable",
            "type": "function"
        },
        {
            "inputs": [],
            "name": "value",
            "outputs": [
                {
                    "internalType": "string",
                    "name": "",
                    "type": "string"
                }
            ],
            "stateMutability": "view",
            "type": "function"
        }
    ],
    "bytecode": "60c0604052600b60808190526a1a195b1b1bc81ddbdc9b1960aa1b60a090815261002c916000919061003f565b5034801561003957600080fd5b50610113565b82805461004b906100d8565b90600052602060002090601f01602090048101928261006d57600085556100b3565b82601f1061008657805160ff19168380011785556100b3565b828001600101855582156100b3579182015b828111156100b3578251825591602001919060010190610098565b506100bf9291506100c3565b5090565b5b808211156100bf57600081556001016100c4565b600181811c908216806100ec57607f821691505b6020821081141561010d57634e487b7160e01b600052602260045260246000fd5b50919050565b610339806101226000396000f3fe608060405234801561001057600080fd5b50600436106100365760003560e01c80633fa4f2451461003b5780634ed3885e14610059575b600080fd5b61004361006e565b60405161005091906101ac565b60405180910390f35b61006c610067366004610217565b6100fc565b005b6000805461007b906102c8565b80601f01602080910402602001604051908101604052809291908181526020018280546100a7906102c8565b80156100f45780601f106100c9576101008083540402835291602001916100f4565b820191906000526020600020905b8154815290600101906020018083116100d757829003601f168201915b505050505081565b805161010f906000906020840190610113565b5050565b82805461011f906102c8565b90600052602060002090601f0160209004810192826101415760008555610187565b82601f1061015a57805160ff1916838001178555610187565b82800160010185558215610187579182015b8281111561018757825182559160200191906001019061016c565b50610193929150610197565b5090565b5b808211156101935760008155600101610198565b600060208083528351808285015260005b818110156101d9578581018301518582016040015282016101bd565b818111156101eb576000604083870101525b50601f01601f1916929092016040019392505050565b634e487b7160e01b600052604160045260246000fd5b60006020828403121561022957600080fd5b813567ffffffffffffffff8082111561024157600080fd5b818401915084601f83011261025557600080fd5b81358181111561026757610267610201565b604051601f8201601f19908116603f0116810190838211818310171561028f5761028f610201565b816040528281528760208487010111156102a857600080fd5b826020860160208301376000928101602001929092525095945050505050565b600181811c908216806102dc57607f821691505b602082108114156102fd57634e487b7160e01b600052602260045260246000fd5b5091905056fea26469706673582212209069fc7ab1bd073593fc6ce7ef64babf0dd5cfacd4c74f79ef08750d9b6583ae64736f6c63430008090033",
    "sourcePath": "d:/BC/contracts/MyContract.sol",
    "compiler": {
        "name": "solc",
        "version": "0.8.9+commit.e5eed63a"
    },
    "functionHashes": {
        "set(string)": "4ed3885e",
        "value()": "3fa4f245"
    },
    "gasEstimates": {
        "creation": {
            "codeDepositCost": "165000",
            "executionCost": "infinite",
            "totalCost": "infinite"
        },
        "external": {
            "set(string)": "infinite",
            "value()": "infinite"
        }
    }
}